{
  "_format": "hh-sol-artifact-1",
  "contractName": "DonationTreasury",
  "sourceName": "contracts/DonationTreasury.sol",
  "abi": [
    {
      "inputs": [
        {
          "internalType": "address",
          "name": "_tokenAddress",
          "type": "address"
        }
      ],
      "stateMutability": "nonpayable",
      "type": "constructor"
    },
    {
      "inputs": [],
      "name": "AccessControlBadConfirmation",
      "type": "error"
    },
    {
      "inputs": [
        {
          "internalType": "address",
          "name": "account",
          "type": "address"
        },
        {
          "internalType": "bytes32",
          "name": "neededRole",
          "type": "bytes32"
        }
      ],
      "name": "AccessControlUnauthorizedAccount",
      "type": "error"
    },
    {
      "anonymous": false,
      "inputs": [
        {
          "indexed": true,
          "internalType": "address",
          "name": "donor",
          "type": "address"
        },
        {
          "indexed": false,
          "internalType": "uint256",
          "name": "polAmount",
          "type": "uint256"
        },
        {
          "indexed": false,
          "internalType": "uint256",
          "name": "rusdMinted",
          "type": "uint256"
        },
        {
          "indexed": false,
          "internalType": "uint256",
          "name": "timestamp",
          "type": "uint256"
        }
      ],
      "name": "Donated",
      "type": "event"
    },
    {
      "anonymous": false,
      "inputs": [
        {
          "indexed": true,
          "internalType": "uint256",
          "name": "requestId",
          "type": "uint256"
        },
        {
          "indexed": true,
          "internalType": "address",
          "name": "merchant",
          "type": "address"
        },
        {
          "indexed": false,
          "internalType": "uint256",
          "name": "rusdAmount",
          "type": "uint256"
        },
        {
          "indexed": false,
          "internalType": "string",
          "name": "requestCID",
          "type": "string"
        },
        {
          "indexed": false,
          "internalType": "uint256",
          "name": "timestamp",
          "type": "uint256"
        }
      ],
      "name": "OffchainRedemptionRequested",
      "type": "event"
    },
    {
      "anonymous": false,
      "inputs": [
        {
          "indexed": true,
          "internalType": "uint256",
          "name": "requestId",
          "type": "uint256"
        },
        {
          "indexed": false,
          "internalType": "enum DonationTreasury.RedemptionStatus",
          "name": "status",
          "type": "uint8"
        },
        {
          "indexed": false,
          "internalType": "string",
          "name": "fulfillmentCID",
          "type": "string"
        },
        {
          "indexed": false,
          "internalType": "uint256",
          "name": "timestamp",
          "type": "uint256"
        }
      ],
      "name": "OffchainRedemptionStatusUpdated",
      "type": "event"
    },
    {
      "anonymous": false,
      "inputs": [
        {
          "indexed": false,
          "internalType": "uint256",
          "name": "rate",
          "type": "uint256"
        },
        {
          "indexed": false,
          "internalType": "uint256",
          "name": "timestamp",
          "type": "uint256"
        }
      ],
      "name": "RateUpdated",
      "type": "event"
    },
    {
      "anonymous": false,
      "inputs": [
        {
          "indexed": true,
          "internalType": "address",
          "name": "merchant",
          "type": "address"
        },
        {
          "indexed": false,
          "internalType": "uint256",
          "name": "rusdAmount",
          "type": "uint256"
        },
        {
          "indexed": false,
          "internalType": "uint256",
          "name": "polAmount",
          "type": "uint256"
        },
        {
          "indexed": false,
          "internalType": "uint256",
          "name": "timestamp",
          "type": "uint256"
        }
      ],
      "name": "RedeemedOnChain",
      "type": "event"
    },
    {
      "anonymous": false,
      "inputs": [
        {
          "indexed": true,
          "internalType": "address",
          "name": "manager",
          "type": "address"
        },
        {
          "indexed": false,
          "internalType": "uint256",
          "name": "timestamp",
          "type": "uint256"
        }
      ],
      "name": "ReliefManagerSet",
      "type": "event"
    },
    {
      "anonymous": false,
      "inputs": [
        {
          "indexed": true,
          "internalType": "bytes32",
          "name": "role",
          "type": "bytes32"
        },
        {
          "indexed": true,
          "internalType": "bytes32",
          "name": "previousAdminRole",
          "type": "bytes32"
        },
        {
          "indexed": true,
          "internalType": "bytes32",
          "name": "newAdminRole",
          "type": "bytes32"
        }
      ],
      "name": "RoleAdminChanged",
      "type": "event"
    },
    {
      "anonymous": false,
      "inputs": [
        {
          "indexed": true,
          "internalType": "bytes32",
          "name": "role",
          "type": "bytes32"
        },
        {
          "indexed": true,
          "internalType": "address",
          "name": "account",
          "type": "address"
        },
        {
          "indexed": true,
          "internalType": "address",
          "name": "sender",
          "type": "address"
        }
      ],
      "name": "RoleGranted",
      "type": "event"
    },
    {
      "anonymous": false,
      "inputs": [
        {
          "indexed": true,
          "internalType": "bytes32",
          "name": "role",
          "type": "bytes32"
        },
        {
          "indexed": true,
          "internalType": "address",
          "name": "account",
          "type": "address"
        },
        {
          "indexed": true,
          "internalType": "address",
          "name": "sender",
          "type": "address"
        }
      ],
      "name": "RoleRevoked",
      "type": "event"
    },
    {
      "anonymous": false,
      "inputs": [
        {
          "indexed": true,
          "internalType": "address",
          "name": "recipient",
          "type": "address"
        },
        {
          "indexed": false,
          "internalType": "uint256",
          "name": "amount",
          "type": "uint256"
        },
        {
          "indexed": false,
          "internalType": "uint256",
          "name": "timestamp",
          "type": "uint256"
        }
      ],
      "name": "Withdrawn",
      "type": "event"
    },
    {
      "inputs": [],
      "name": "ADMIN_ROLE",
      "outputs": [
        {
          "internalType": "bytes32",
          "name": "",
          "type": "bytes32"
        }
      ],
      "stateMutability": "view",
      "type": "function"
    },
    {
      "inputs": [],
      "name": "DEFAULT_ADMIN_ROLE",
      "outputs": [
        {
          "internalType": "bytes32",
          "name": "",
          "type": "bytes32"
        }
      ],
      "stateMutability": "view",
      "type": "function"
    },
    {
      "inputs": [],
      "name": "donate",
      "outputs": [],
      "stateMutability": "payable",
      "type": "function"
    },
    {
      "inputs": [
        {
          "internalType": "uint256",
          "name": "requestId",
          "type": "uint256"
        },
        {
          "internalType": "string",
          "name": "fulfillmentCID",
          "type": "string"
        }
      ],
      "name": "fulfillOffchainRedemption",
      "outputs": [],
      "stateMutability": "nonpayable",
      "type": "function"
    },
    {
      "inputs": [
        {
          "internalType": "bytes32",
          "name": "role",
          "type": "bytes32"
        }
      ],
      "name": "getRoleAdmin",
      "outputs": [
        {
          "internalType": "bytes32",
          "name": "",
          "type": "bytes32"
        }
      ],
      "stateMutability": "view",
      "type": "function"
    },
    {
      "inputs": [],
      "name": "getTotalRequests",
      "outputs": [
        {
          "internalType": "uint256",
          "name": "",
          "type": "uint256"
        }
      ],
      "stateMutability": "view",
      "type": "function"
    },
    {
      "inputs": [
        {
          "internalType": "bytes32",
          "name": "role",
          "type": "bytes32"
        },
        {
          "internalType": "address",
          "name": "account",
          "type": "address"
        }
      ],
      "name": "grantRole",
      "outputs": [],
      "stateMutability": "nonpayable",
      "type": "function"
    },
    {
      "inputs": [
        {
          "internalType": "bytes32",
          "name": "role",
          "type": "bytes32"
        },
        {
          "internalType": "address",
          "name": "account",
          "type": "address"
        }
      ],
      "name": "hasRole",
      "outputs": [
        {
          "internalType": "bool",
          "name": "",
          "type": "bool"
        }
      ],
      "stateMutability": "view",
      "type": "function"
    },
    {
      "inputs": [],
      "name": "polToRusdRate",
      "outputs": [
        {
          "internalType": "uint256",
          "name": "",
          "type": "uint256"
        }
      ],
      "stateMutability": "view",
      "type": "function"
    },
    {
      "inputs": [
        {
          "internalType": "uint256",
          "name": "rusdAmount",
          "type": "uint256"
        }
      ],
      "name": "redeemOnChain",
      "outputs": [],
      "stateMutability": "nonpayable",
      "type": "function"
    },
    {
      "inputs": [
        {
          "internalType": "uint256",
          "name": "",
          "type": "uint256"
        }
      ],
      "name": "redemptionRequests",
      "outputs": [
        {
          "internalType": "address",
          "name": "merchant",
          "type": "address"
        },
        {
          "internalType": "uint256",
          "name": "rusdAmount",
          "type": "uint256"
        },
        {
          "internalType": "string",
          "name": "requestCID",
          "type": "string"
        },
        {
          "internalType": "string",
          "name": "fulfillmentCID",
          "type": "string"
        },
        {
          "internalType": "uint256",
          "name": "timestamp",
          "type": "uint256"
        },
        {
          "internalType": "enum DonationTreasury.RedemptionStatus",
          "name": "status",
          "type": "uint8"
        }
      ],
      "stateMutability": "view",
      "type": "function"
    },
    {
      "inputs": [
        {
          "internalType": "uint256",
          "name": "requestId",
          "type": "uint256"
        },
        {
          "internalType": "string",
          "name": "fulfillmentCID",
          "type": "string"
        }
      ],
      "name": "rejectOffchainRedemption",
      "outputs": [],
      "stateMutability": "nonpayable",
      "type": "function"
    },
    {
      "inputs": [],
      "name": "reliefManager",
      "outputs": [
        {
          "internalType": "address",
          "name": "",
          "type": "address"
        }
      ],
      "stateMutability": "view",
      "type": "function"
    },
    {
      "inputs": [
        {
          "internalType": "bytes32",
          "name": "role",
          "type": "bytes32"
        },
        {
          "internalType": "address",
          "name": "callerConfirmation",
          "type": "address"
        }
      ],
      "name": "renounceRole",
      "outputs": [],
      "stateMutability": "nonpayable",
      "type": "function"
    },
    {
      "inputs": [
        {
          "internalType": "uint256",
          "name": "rusdAmount",
          "type": "uint256"
        },
        {
          "internalType": "string",
          "name": "requestCID",
          "type": "string"
        }
      ],
      "name": "requestOffchainRedemption",
      "outputs": [
        {
          "internalType": "uint256",
          "name": "",
          "type": "uint256"
        }
      ],
      "stateMutability": "nonpayable",
      "type": "function"
    },
    {
      "inputs": [
        {
          "internalType": "bytes32",
          "name": "role",
          "type": "bytes32"
        },
        {
          "internalType": "address",
          "name": "account",
          "type": "address"
        }
      ],
      "name": "revokeRole",
      "outputs": [],
      "stateMutability": "nonpayable",
      "type": "function"
    },
    {
      "inputs": [
        {
          "internalType": "uint256",
          "name": "_rate",
          "type": "uint256"
        }
      ],
      "name": "setPolToRusdRate",
      "outputs": [],
      "stateMutability": "nonpayable",
      "type": "function"
    },
    {
      "inputs": [
        {
          "internalType": "address",
          "name": "_manager",
          "type": "address"
        }
      ],
      "name": "setReliefManager",
      "outputs": [],
      "stateMutability": "nonpayable",
      "type": "function"
    },
    {
      "inputs": [
        {
          "internalType": "bytes4",
          "name": "interfaceId",
          "type": "bytes4"
        }
      ],
      "name": "supportsInterface",
      "outputs": [
        {
          "internalType": "bool",
          "name": "",
          "type": "bool"
        }
      ],
      "stateMutability": "view",
      "type": "function"
    },
    {
      "inputs": [],
      "name": "token",
      "outputs": [
        {
          "internalType": "contract ReliefUSD",
          "name": "",
          "type": "address"
        }
      ],
      "stateMutability": "view",
      "type": "function"
    },
    {
      "inputs": [],
      "name": "totalDonatedPOL",
      "outputs": [
        {
          "internalType": "uint256",
          "name": "",
          "type": "uint256"
        }
      ],
      "stateMutability": "view",
      "type": "function"
    },
    {
      "inputs": [],
      "name": "totalRedeemedPOL",
      "outputs": [
        {
          "internalType": "uint256",
          "name": "",
          "type": "uint256"
        }
      ],
      "stateMutability": "view",
      "type": "function"
    },
    {
      "inputs": [],
      "name": "totalRedeemedRUSD",
      "outputs": [
        {
          "internalType": "uint256",
          "name": "",
          "type": "uint256"
        }
      ],
      "stateMutability": "view",
      "type": "function"
    },
    {
      "inputs": [],
      "name": "treasuryBalance",
      "outputs": [
        {
          "internalType": "uint256",
          "name": "",
          "type": "uint256"
        }
      ],
      "stateMutability": "view",
      "type": "function"
    },
    {
      "inputs": [
        {
          "internalType": "address payable",
          "name": "recipient",
          "type": "address"
        },
        {
          "internalType": "uint256",
          "name": "amount",
          "type": "uint256"
        }
      ],
      "name": "withdrawPOL",
      "outputs": [],
      "stateMutability": "nonpayable",
      "type": "function"
    },
    {
      "stateMutability": "payable",
      "type": "receive"
    }
  ],
  "bytecode": "0x608034620000d457601f62001bac38819003918201601f19168301916001600160401b03831184841017620000d957808492602094604052833981010312620000d457516001600160a01b03811690819003620000d4576103e860035580156200009f57600180546001600160a01b0319169190911790556200008233620000ef565b506200008e336200016f565b5060405161197a9081620002128239f35b60405162461bcd60e51b815260206004820152600d60248201526c24b73b30b634b2103a37b5b2b760991b6044820152606490fd5b600080fd5b634e487b7160e01b600052604160045260246000fd5b6001600160a01b031660008181527fad3228b676f7d3cd4284a5443f17f1962b36e491b30a40b2405849e597ba5fb5602052604081205490919060ff166200016b57818052816020526040822081835260205260408220600160ff19825416179055339160008051602062001b8c8339815191528180a4600190565b5090565b6001600160a01b031660008181527f7d7ffb7a348e1c6a02869081a26547b49160dd3df72d1d75a570eb9b698292ec60205260408120549091907fa49807205ce4d355092ef5a8a18f56e8913cf4a201fbe287825b095693c217759060ff166200020c57808352826020526040832082845260205260408320600160ff1982541617905560008051602062001b8c833981519152339380a4600190565b50509056fe608060408181526004918236101561002a575b505050361561002057600080fd5b610028611602565b005b600092833560e01c91826301ffc9a7146111fc57508163248a9ca3146111d25781632f2ff15d146111a8578163313dab201461118d57816336568abe146111475781633f6eea7914610fc557816365949fe114610fa65781636e5348d514610e7557816375b238fc14610e3a57816376b0f34714610e1c57816377454a1314610df35781638026f69314610dd457816391d1485414610d8e578163a217fddf14610d73578163d13356e814610941578163d547741f14610902578163e093a4fb14610875578163e1a0cc6f146107b8578163e3893c211461050f578163e49bb2e8146104f0578163ed88c68e146104d6578163f0e22d52146104b7578163f3d005e7146103fd578163f5e7710d14610178575063fc0c546a1461014d5780610012565b3461017457816003193601126101745760015490516001600160a01b039091168152602090f35b5080fd5b8383346101745761018836611265565b919261019261146f565b61019f60075485106118ac565b6101a8846112b2565b5091600583019660ff88541660038110156103ea576101c790156118ea565b600180548554868301805493979390926001600160a01b0392908316908316813b156103e65788516347c388cf60e11b81526001600160a01b039091168188019081523060208201526040810193909352918c91839182908490829060600103925af180156103dc57908b916103c8575b50508654169054813b156103c45789916024839288519485938492630852cd8d60e31b8452898401525af180156103ba579089916103a2575b50506003019067ffffffffffffffff861161038f575061029b856102958354611303565b83611837565b86601f861160011461031357976102fc929186899a600080516020611925833981519152999a91610308575b50600019600389901b1c191687871b1790555b8460ff198254161790558251948594855260606020860152606085019161188b565b9042908301520390a280f35b90508301358b6102c7565b81885260208089209190601f198816908a905b828210610378575050916102fc949391886000805160206119258339815191529a9b9c941061035e575b50508587811b0190556102da565b84013560001960038a901b60f8161c191690558a80610350565b808985968294968a01358155019501930190610326565b634e487b7160e01b885260419052602487fd5b6103ab9061133d565b6103b657878a610271565b8780fd5b85513d8b823e3d90fd5b8980fd5b6103d19061133d565b6103c457898c610238565b87513d8d823e3d90fd5b8c80fd5b634e487b7160e01b885260218252602488fd5b919050346104b35760203660031901126104b35781356001600160a01b03811692908390036104ae5761042e61146f565b821561047a575060207f41620dfcb7454069a4e9bc80a28c8f60a6720f893dafab663c9297848888819b91836bffffffffffffffffffffffff60a01b600254161760025551428152a280f35b6020606492519162461bcd60e51b8352820152600f60248201526e24b73b30b634b21036b0b730b3b2b960891b6044820152fd5b600080fd5b8280fd5b5050346101745781600319360112610174576020906007549051908152f35b83806003193601126104ed576104ea611602565b80f35b80fd5b5050346101745781600319360112610174576020906003549051908152f35b9050346104b357602091826003193601126107b4578135916105328315156117ba565b60015482516370a0823160e01b815233838201526001600160a01b03918216956024929091828185818b5afa80156106ec5787908a90610783575b610579925010156117f7565b600354801561077157860496871561073c578747106106fa57803b156106f65785516347c388cf60e11b8152338682019081523060208201526040810189905290918a9183919082908490829060600103925af180156106ec576106d9575b50879060015416803b156101745781809185885180948193630852cd8d60e31b83528c8b8401525af180156106cf576106b7575b505061061a85600654611761565b60065561062986600554611761565b6005558680808089335af161063c61178a565b5015610683575050905191825250602081019190915242604082015233907f09c8d08fe2311314396826c399693f9fbe107c909fbe591164349b600a41587890606090a280f35b90601191606494519362461bcd60e51b8552840152820152701413d3081c185e5bdd5d0819985a5b1959607a1b6044820152fd5b6106c09061133d565b6106cb57863861060c565b8680fd5b86513d84823e3d90fd5b6106e59098919861133d565b96386105d8565b86513d8b823e3d90fd5b8880fd5b855162461bcd60e51b81528086018490526019818601527f547265617375727920696e73756666696369656e7420504f4c000000000000006044820152606490fd5b855162461bcd60e51b81528086018490526010818601526f105b5bdd5b9d081d1bdbc81cdb585b1b60821b6044820152606490fd5b634e487b7160e01b8952601285528389fd5b50508281813d83116107ad575b61079a8183611367565b810103126106f65786610579915161056d565b503d610790565b8380fd5b8383346101745760203660031901126101745782356007548110156104b3576107e0906112b2565b509060018060a01b038254169261084660018401549261083861080560028701611389565b60c061081360038901611389565b9360ff60058c8b01549a0154169781519a8b5260208b015289015260c088019061142f565b90868203606088015261142f565b9260808501526003821015610862575082935060a08301520390f35b634e487b7160e01b815260218552602490fd5b9050346104b35760203660031901126104b35780359061089361146f565b81156108d0575090817fb38780ddde1f073d91c150de2696f3f7085883648ba21cc5ef01029cb21d1916926003558151908152426020820152a180f35b606490602084519162461bcd60e51b8352820152600c60248201526b496e76616c6964207261746560a01b6044820152fd5b919050346104b357806003193601126104b35761093d9135610938600161092761124f565b9383875286602052862001546114e9565b61158d565b5080f35b919050346104b35761095236611265565b61095d8315156117ba565b8015610d3a576001805485516370a0823160e01b8152338882015260209860249390926001600160a01b0392908b9082908790829087165afa8015610d305788908590610cff575b6109b1925010156117f7565b875167ffffffffffffffff60c0820181811183821017610ced578a523382528b8201908982526109e08861176e565b6109ec8c519182611367565b88815236898b01116106cb578d9190898b8483013787838b830101528c85019081528c5192830183811083821117610cb4578d5287835260608501928352608085019342855260a086019789895260075468010000000000000000811015610cd9578089610a5d92016007556112b2565b979097610cc6575187546001600160a01b03191691161786555186860155518051828111610cb4578f81906002880193610aa183610a9b8754611303565b87611837565b81601f8411600114610c5057508b92610c45575b5050600019600383901b1c191690871b1790555b600384019151948551918211610c32578e610aee83610ae88654611303565b86611837565b80601f8411600114610bc65750829182916005988b94610bbb575b50501b916000199060031b1c19161790555b518a8201550190516003811015610ba95760ff80198354169116179055600754966000198801978811610b9957505050610b8785927f614ae4f6708b8f34f4564b78d533a1213622639f97afc74f2f6507d1dd60aad2928651958652606089870152606086019161188b565b9242858201528033940390a351908152f35b634e487b7160e01b825260119052fd5b5050634e487b7160e01b815260218752fd5b015192503880610b09565b9193949596601f198416868b52838b20938b905b828210610c1b57505090846005999897969594939210610c02575b505050811b019055610b1b565b015160001960f88460031b161c19169055388080610bf5565b808886978294978701518155019601940190610bda565b50634e487b7160e01b875260418d528787fd5b015190503880610ab5565b858d52808d208b9550929190601f198516908e905b828210610c9b5750508411610c82575b505050811b019055610ac9565b015160001960f88460031b161c19169055388080610c75565b8484015186558d97909501949384019390810190610c65565b634e487b7160e01b895260418f528989fd5b508f8a808d92634e487b7160e01b825252fd5b508f8a60418d92634e487b7160e01b835252fd5b634e487b7160e01b865260418c528686fd5b50508a81813d8311610d29575b610d168183611367565b810103126107b457876109b191516109a5565b503d610d0c565b89513d86823e3d90fd5b835162461bcd60e51b815260208187015260136024820152721c995c5d595cdd10d251081c995c5d5a5c9959606a1b6044820152606490fd5b50503461017457816003193601126101745751908152602090f35b9050346104b357816003193601126104b3578160209360ff92610daf61124f565b903582528186528282206001600160a01b039091168252855220549151911615158152f35b5050346101745781600319360112610174576020906005549051908152f35b50503461017457816003193601126101745760025490516001600160a01b039091168152602090f35b9050346104b357826003193601126104b35760209250549051908152f35b505034610174578160031936011261017457602090517fa49807205ce4d355092ef5a8a18f56e8913cf4a201fbe287825b095693c217758152f35b919050346104b357806003193601126104b35781356001600160a01b03811692908390036107b45760243590610ea961146f565b8315610f6f57478211610f34578480808085885af1610ec661178a565b5015610eff5750907f92ccf450a286a957af52509bc1c9939d1a6a481783e142e41e2499f0bb66ebc6918151908152426020820152a280f35b606490602084519162461bcd60e51b8352820152600f60248201526e15da5d1a191c985dc819985a5b1959608a1b6044820152fd5b606490602084519162461bcd60e51b83528201526015602482015274496e73756666696369656e7420747265617375727960581b6044820152fd5b606490602084519162461bcd60e51b83528201526011602482015270125b9d985b1a59081c9958da5c1a595b9d607a1b6044820152fd5b5050346101745781600319360112610174576020906006549051908152f35b83833461017457610fd536611265565b909192610fe061146f565b610fed60075485106118ac565b610ff6846112b2565b50600581019060ff82541660038110156111345790611017600392156118ea565b019667ffffffffffffffff8411611121575061103d836110378954611303565b89611837565b8596601f84116001146110ab578387986000805160206119258339815191529798916110a0575b508460011b906000198660031b1c19161790555b600260ff198254161790556102fc81519384936002855260606020860152606085019161188b565b905085013589611064565b8087526020808820601f19861699909189905b8b82106111095750508560008051602061192583398151915298999a106110ef575b5050600184811b019055611078565b860135600019600387901b60f8161c1916905588806110e0565b80600184958294958c013581550194019201906110be565b634e487b7160e01b875260419052602486fd5b634e487b7160e01b885260218952602488fd5b83833461017457806003193601126101745761116161124f565b90336001600160a01b0383160361117e575061093d91923561158d565b5163334bd91960e11b81528390fd5b50503461017457816003193601126101745751478152602090f35b919050346104b357806003193601126104b35761093d91356111cd600161092761124f565b61150f565b9050346104b35760203660031901126104b357816020936001923581528085522001549051908152f35b8491346104b35760203660031901126104b3573563ffffffff60e01b81168091036104b35760209250637965db0b60e01b811490811561123e575b5015158152f35b6301ffc9a760e01b14905083611237565b602435906001600160a01b03821682036104ae57565b60406003198201126104ae576004359160243567ffffffffffffffff928382116104ae57806023830112156104ae5781600401359384116104ae57602484830101116104ae576024019190565b6007548110156112ed576006906007600052027fa66cc928b5edb82af9bd49922954155ab7b0942694bea4ce44661d9a8736c6880190600090565b634e487b7160e01b600052603260045260246000fd5b90600182811c92168015611333575b602083101461131d57565b634e487b7160e01b600052602260045260246000fd5b91607f1691611312565b67ffffffffffffffff811161135157604052565b634e487b7160e01b600052604160045260246000fd5b90601f8019910116810190811067ffffffffffffffff82111761135157604052565b906040519182600082549261139d84611303565b90818452600194858116908160001461140c57506001146113c9575b50506113c792500383611367565b565b9093915060005260209081600020936000915b8183106113f45750506113c7935082010138806113b9565b855488840185015294850194879450918301916113dc565b9150506113c794506020925060ff191682840152151560051b82010138806113b9565b919082519283825260005b84811061145b575050826000602080949584010152601f8019910116010190565b60208183018101518483018201520161143a565b3360009081527f7d7ffb7a348e1c6a02869081a26547b49160dd3df72d1d75a570eb9b698292ec60205260409020547fa49807205ce4d355092ef5a8a18f56e8913cf4a201fbe287825b095693c217759060ff16156114cb5750565b6044906040519063e2517d3f60e01b82523360048301526024820152fd5b80600052600060205260406000203360005260205260ff60406000205416156114cb5750565b9060009180835282602052604083209160018060a01b03169182845260205260ff6040842054161560001461158857808352826020526040832082845260205260408320600160ff198254161790557f2f8788117e7eff1d82e926ec794901d17c78024a50270940304540a733656f0d339380a4600190565b505090565b9060009180835282602052604083209160018060a01b03169182845260205260ff6040842054166000146115885780835282602052604083208284526020526040832060ff1981541690557ff6391f5c32d9c69d2a47ea670b442974b53935d1edc7fd64eb21e047a839171b339380a4600190565b3415611725576002546001600160a01b0390811680156116e85761162834600454611761565b6004556003549182340292348404036116d2576001541690813b156104ae576000916044839260405194859384926340c10f1960e01b845260048401528760248401525af180156116c6576116b7575b50604080513481526020810192909252429082015233907f8d09c6745838fd32e92a7aec9e4c21f8fcc0ddf4300881dcffdbf060ba8bcff290606090a2565b6116c09061133d565b38611678565b6040513d6000823e3d90fd5b634e487b7160e01b600052601160045260246000fd5b60405162461bcd60e51b815260206004820152601560248201527414995b1a595993585b9859d95c881b9bdd081cd95d605a1b6044820152606490fd5b60405162461bcd60e51b81526020600482015260146024820152730446f6e6174696f6e206d757374206265203e20360641b6044820152606490fd5b919082018092116116d257565b67ffffffffffffffff811161135157601f01601f191660200190565b3d156117b5573d9061179b8261176e565b916117a96040519384611367565b82523d6000602084013e565b606090565b156117c157565b60405162461bcd60e51b815260206004820152600e60248201526d125b9d985b1a5908185b5bdd5b9d60921b6044820152606490fd5b156117fe57565b60405162461bcd60e51b8152602060048201526011602482015270125b9cdd59999a58da595b9d08149554d1607a1b6044820152606490fd5b90601f811161184557505050565b600091825260208220906020601f850160051c83019410611881575b601f0160051c01915b82811061187657505050565b81815560010161186a565b9092508290611861565b908060209392818452848401376000828201840152601f01601f1916010190565b156118b357565b60405162461bcd60e51b815260206004820152600f60248201526e125b9d985b1a59081c995c5d595cdd608a1b6044820152606490fd5b156118f157565b60405162461bcd60e51b815260206004820152600b60248201526a4e6f742070656e64696e6760a81b6044820152606490fdfe53fc9f059f2ea2cb89de6baa880ec2e2f16765788534b7d5446231ff4cb221d8a26469706673582212209ccf128995b20f7efa7b00544037c58fcbea1e0650b8b96b1247885f493a2fc564736f6c634300081400332f8788117e7eff1d82e926ec794901d17c78024a50270940304540a733656f0d",
  "linkReferences": {},
  "deployedLinkReferences": {}
}