{
  "_format": "hh-sol-artifact-1",
  "contractName": "ReliefUSD",
  "sourceName": "contracts/ReliefUSD.sol",
  "abi": [
    {
      "inputs": [],
      "stateMutability": "nonpayable",
      "type": "constructor"
    },
    {
      "inputs": [],
      "name": "AccessControlBadConfirmation",
      "type": "error"
    },
    {
      "inputs": [
        {
          "internalType": "address",
          "name": "account",
          "type": "address"
        },
        {
          "internalType": "bytes32",
          "name": "neededRole",
          "type": "bytes32"
        }
      ],
      "name": "AccessControlUnauthorizedAccount",
      "type": "error"
    },
    {
      "inputs": [
        {
          "internalType": "address",
          "name": "spender",
          "type": "address"
        },
        {
          "internalType": "uint256",
          "name": "allowance",
          "type": "uint256"
        },
        {
          "internalType": "uint256",
          "name": "needed",
          "type": "uint256"
        }
      ],
      "name": "ERC20InsufficientAllowance",
      "type": "error"
    },
    {
      "inputs": [
        {
          "internalType": "address",
          "name": "sender",
          "type": "address"
        },
        {
          "internalType": "uint256",
          "name": "balance",
          "type": "uint256"
        },
        {
          "internalType": "uint256",
          "name": "needed",
          "type": "uint256"
        }
      ],
      "name": "ERC20InsufficientBalance",
      "type": "error"
    },
    {
      "inputs": [
        {
          "internalType": "address",
          "name": "approver",
          "type": "address"
        }
      ],
      "name": "ERC20InvalidApprover",
      "type": "error"
    },
    {
      "inputs": [
        {
          "internalType": "address",
          "name": "receiver",
          "type": "address"
        }
      ],
      "name": "ERC20InvalidReceiver",
      "type": "error"
    },
    {
      "inputs": [
        {
          "internalType": "address",
          "name": "sender",
          "type": "address"
        }
      ],
      "name": "ERC20InvalidSender",
      "type": "error"
    },
    {
      "inputs": [
        {
          "internalType": "address",
          "name": "spender",
          "type": "address"
        }
      ],
      "name": "ERC20InvalidSpender",
      "type": "error"
    },
    {
      "anonymous": false,
      "inputs": [
        {
          "indexed": true,
          "internalType": "address",
          "name": "owner",
          "type": "address"
        },
        {
          "indexed": true,
          "internalType": "address",
          "name": "spender",
          "type": "address"
        },
        {
          "indexed": false,
          "internalType": "uint256",
          "name": "value",
          "type": "uint256"
        }
      ],
      "name": "Approval",
      "type": "event"
    },
    {
      "anonymous": false,
      "inputs": [
        {
          "indexed": true,
          "internalType": "address",
          "name": "manager",
          "type": "address"
        },
        {
          "indexed": false,
          "internalType": "bool",
          "name": "allowed",
          "type": "bool"
        }
      ],
      "name": "ManagerSet",
      "type": "event"
    },
    {
      "anonymous": false,
      "inputs": [
        {
          "indexed": true,
          "internalType": "address",
          "name": "minter",
          "type": "address"
        },
        {
          "indexed": false,
          "internalType": "bool",
          "name": "allowed",
          "type": "bool"
        }
      ],
      "name": "MinterSet",
      "type": "event"
    },
    {
      "anonymous": false,
      "inputs": [
        {
          "indexed": true,
          "internalType": "bytes32",
          "name": "role",
          "type": "bytes32"
        },
        {
          "indexed": true,
          "internalType": "bytes32",
          "name": "previousAdminRole",
          "type": "bytes32"
        },
        {
          "indexed": true,
          "internalType": "bytes32",
          "name": "newAdminRole",
          "type": "bytes32"
        }
      ],
      "name": "RoleAdminChanged",
      "type": "event"
    },
    {
      "anonymous": false,
      "inputs": [
        {
          "indexed": true,
          "internalType": "bytes32",
          "name": "role",
          "type": "bytes32"
        },
        {
          "indexed": true,
          "internalType": "address",
          "name": "account",
          "type": "address"
        },
        {
          "indexed": true,
          "internalType": "address",
          "name": "sender",
          "type": "address"
        }
      ],
      "name": "RoleGranted",
      "type": "event"
    },
    {
      "anonymous": false,
      "inputs": [
        {
          "indexed": true,
          "internalType": "bytes32",
          "name": "role",
          "type": "bytes32"
        },
        {
          "indexed": true,
          "internalType": "address",
          "name": "account",
          "type": "address"
        },
        {
          "indexed": true,
          "internalType": "address",
          "name": "sender",
          "type": "address"
        }
      ],
      "name": "RoleRevoked",
      "type": "event"
    },
    {
      "anonymous": false,
      "inputs": [
        {
          "indexed": true,
          "internalType": "address",
          "name": "from",
          "type": "address"
        },
        {
          "indexed": true,
          "internalType": "address",
          "name": "to",
          "type": "address"
        },
        {
          "indexed": false,
          "internalType": "uint256",
          "name": "value",
          "type": "uint256"
        }
      ],
      "name": "Transfer",
      "type": "event"
    },
    {
      "inputs": [],
      "name": "DEFAULT_ADMIN_ROLE",
      "outputs": [
        {
          "internalType": "bytes32",
          "name": "",
          "type": "bytes32"
        }
      ],
      "stateMutability": "view",
      "type": "function"
    },
    {
      "inputs": [],
      "name": "MANAGER_ROLE",
      "outputs": [
        {
          "internalType": "bytes32",
          "name": "",
          "type": "bytes32"
        }
      ],
      "stateMutability": "view",
      "type": "function"
    },
    {
      "inputs": [],
      "name": "MINTER_ROLE",
      "outputs": [
        {
          "internalType": "bytes32",
          "name": "",
          "type": "bytes32"
        }
      ],
      "stateMutability": "view",
      "type": "function"
    },
    {
      "inputs": [
        {
          "internalType": "address",
          "name": "owner",
          "type": "address"
        },
        {
          "internalType": "address",
          "name": "spender",
          "type": "address"
        }
      ],
      "name": "allowance",
      "outputs": [
        {
          "internalType": "uint256",
          "name": "",
          "type": "uint256"
        }
      ],
      "stateMutability": "view",
      "type": "function"
    },
    {
      "inputs": [
        {
          "internalType": "address",
          "name": "spender",
          "type": "address"
        },
        {
          "internalType": "uint256",
          "name": "value",
          "type": "uint256"
        }
      ],
      "name": "approve",
      "outputs": [
        {
          "internalType": "bool",
          "name": "",
          "type": "bool"
        }
      ],
      "stateMutability": "nonpayable",
      "type": "function"
    },
    {
      "inputs": [
        {
          "internalType": "address",
          "name": "account",
          "type": "address"
        }
      ],
      "name": "balanceOf",
      "outputs": [
        {
          "internalType": "uint256",
          "name": "",
          "type": "uint256"
        }
      ],
      "stateMutability": "view",
      "type": "function"
    },
    {
      "inputs": [
        {
          "internalType": "uint256",
          "name": "amount",
          "type": "uint256"
        }
      ],
      "name": "burn",
      "outputs": [],
      "stateMutability": "nonpayable",
      "type": "function"
    },
    {
      "inputs": [],
      "name": "decimals",
      "outputs": [
        {
          "internalType": "uint8",
          "name": "",
          "type": "uint8"
        }
      ],
      "stateMutability": "pure",
      "type": "function"
    },
    {
      "inputs": [
        {
          "internalType": "bytes32",
          "name": "role",
          "type": "bytes32"
        }
      ],
      "name": "getRoleAdmin",
      "outputs": [
        {
          "internalType": "bytes32",
          "name": "",
          "type": "bytes32"
        }
      ],
      "stateMutability": "view",
      "type": "function"
    },
    {
      "inputs": [
        {
          "internalType": "bytes32",
          "name": "role",
          "type": "bytes32"
        },
        {
          "internalType": "address",
          "name": "account",
          "type": "address"
        }
      ],
      "name": "grantRole",
      "outputs": [],
      "stateMutability": "nonpayable",
      "type": "function"
    },
    {
      "inputs": [
        {
          "internalType": "bytes32",
          "name": "role",
          "type": "bytes32"
        },
        {
          "internalType": "address",
          "name": "account",
          "type": "address"
        }
      ],
      "name": "hasRole",
      "outputs": [
        {
          "internalType": "bool",
          "name": "",
          "type": "bool"
        }
      ],
      "stateMutability": "view",
      "type": "function"
    },
    {
      "inputs": [
        {
          "internalType": "address",
          "name": "from",
          "type": "address"
        },
        {
          "internalType": "address",
          "name": "to",
          "type": "address"
        },
        {
          "internalType": "uint256",
          "name": "amount",
          "type": "uint256"
        }
      ],
      "name": "managerTransfer",
      "outputs": [],
      "stateMutability": "nonpayable",
      "type": "function"
    },
    {
      "inputs": [
        {
          "internalType": "address",
          "name": "to",
          "type": "address"
        },
        {
          "internalType": "uint256",
          "name": "amount",
          "type": "uint256"
        }
      ],
      "name": "mint",
      "outputs": [],
      "stateMutability": "nonpayable",
      "type": "function"
    },
    {
      "inputs": [],
      "name": "name",
      "outputs": [
        {
          "internalType": "string",
          "name": "",
          "type": "string"
        }
      ],
      "stateMutability": "view",
      "type": "function"
    },
    {
      "inputs": [
        {
          "internalType": "bytes32",
          "name": "role",
          "type": "bytes32"
        },
        {
          "internalType": "address",
          "name": "callerConfirmation",
          "type": "address"
        }
      ],
      "name": "renounceRole",
      "outputs": [],
      "stateMutability": "nonpayable",
      "type": "function"
    },
    {
      "inputs": [
        {
          "internalType": "bytes32",
          "name": "role",
          "type": "bytes32"
        },
        {
          "internalType": "address",
          "name": "account",
          "type": "address"
        }
      ],
      "name": "revokeRole",
      "outputs": [],
      "stateMutability": "nonpayable",
      "type": "function"
    },
    {
      "inputs": [
        {
          "internalType": "address",
          "name": "manager",
          "type": "address"
        },
        {
          "internalType": "bool",
          "name": "allowed",
          "type": "bool"
        }
      ],
      "name": "setManager",
      "outputs": [],
      "stateMutability": "nonpayable",
      "type": "function"
    },
    {
      "inputs": [
        {
          "internalType": "address",
          "name": "minter",
          "type": "address"
        },
        {
          "internalType": "bool",
          "name": "allowed",
          "type": "bool"
        }
      ],
      "name": "setMinter",
      "outputs": [],
      "stateMutability": "nonpayable",
      "type": "function"
    },
    {
      "inputs": [
        {
          "internalType": "bytes4",
          "name": "interfaceId",
          "type": "bytes4"
        }
      ],
      "name": "supportsInterface",
      "outputs": [
        {
          "internalType": "bool",
          "name": "",
          "type": "bool"
        }
      ],
      "stateMutability": "view",
      "type": "function"
    },
    {
      "inputs": [],
      "name": "symbol",
      "outputs": [
        {
          "internalType": "string",
          "name": "",
          "type": "string"
        }
      ],
      "stateMutability": "view",
      "type": "function"
    },
    {
      "inputs": [],
      "name": "totalSupply",
      "outputs": [
        {
          "internalType": "uint256",
          "name": "",
          "type": "uint256"
        }
      ],
      "stateMutability": "view",
      "type": "function"
    },
    {
      "inputs": [
        {
          "internalType": "address",
          "name": "to",
          "type": "address"
        },
        {
          "internalType": "uint256",
          "name": "value",
          "type": "uint256"
        }
      ],
      "name": "transfer",
      "outputs": [
        {
          "internalType": "bool",
          "name": "",
          "type": "bool"
        }
      ],
      "stateMutability": "nonpayable",
      "type": "function"
    },
    {
      "inputs": [
        {
          "internalType": "address",
          "name": "from",
          "type": "address"
        },
        {
          "internalType": "address",
          "name": "to",
          "type": "address"
        },
        {
          "internalType": "uint256",
          "name": "value",
          "type": "uint256"
        }
      ],
      "name": "transferFrom",
      "outputs": [
        {
          "internalType": "bool",
          "name": "",
          "type": "bool"
        }
      ],
      "stateMutability": "nonpayable",
      "type": "function"
    }
  ],
  "bytecode": "0x60803462000352576040906001600160401b0390808301828111828210176200033c578352600a81526020916914995b1a5959881554d160b21b83830152835192848401848110838211176200033c57855260049384815263149554d160e21b8282015283519083821162000327576003928354926001968785811c951680156200031c575b8386101462000307578190601f95868111620002b1575b5083908683116001146200024a576000926200023e575b505060001982871b1c191690871b1784555b8151948511620002295786548681811c911680156200021e575b828210146200020957838111620001be575b508092851160011462000150575093839491849260009562000144575b50501b92600019911b1c19161790555b620001293362000357565b506200013533620003d8565b505161139f90816200047c8239f35b0151935038806200010e565b92919084601f1981168860005285600020956000905b89838310620001a3575050501062000188575b50505050811b0190556200011e565b01519060f884600019921b161c191690553880808062000179565b85870151895590970196948501948893509081019062000166565b87600052816000208480880160051c820192848910620001ff575b0160051c019087905b828110620001f2575050620000f1565b60008155018790620001e2565b92508192620001d9565b602288634e487b7160e01b6000525260246000fd5b90607f1690620000df565b604187634e487b7160e01b6000525260246000fd5b015190503880620000b3565b90899350601f1983169188600052856000209260005b878282106200029a575050841162000281575b505050811b018455620000c5565b015160001983891b60f8161c1916905538808062000273565b8385015186558d9790950194938401930162000260565b90915086600052836000208680850160051c820192868610620002fd575b918b91869594930160051c01915b828110620002ed5750506200009c565b600081558594508b9101620002dd565b92508192620002cf565b602289634e487b7160e01b6000525260246000fd5b94607f169462000085565b604186634e487b7160e01b6000525260246000fd5b634e487b7160e01b600052604160045260246000fd5b600080fd5b6001600160a01b031660008181527f05b8ccbb9d4d8fb16ea74ce3c29a41f1b461fbdaff4714a0d9a8eb05499746bc602052604081205490919060ff16620003d45781805260056020526040822081835260205260408220600160ff1982541617905533916000805160206200181b8339815191528180a4600190565b5090565b6001600160a01b031660008181527f15a28d26fa1bf736cf7edc9922607171ccb09c3c73b808e7772a3013e068a52260205260408120549091907f9f2df0fed2c77648de5860a4cc508cd0818c85b8b8a1ab4ceeef8d981c8956a69060ff16620004765780835260056020526040832082845260205260408320600160ff198254161790556000805160206200181b833981519152339380a4600190565b50509056fe608060408181526004918236101561001657600080fd5b600092833560e01c91826301ffc9a714610aab5750816306fdde03146109d1578163095ea7b31461092757816318160ddd1461090857816323b872dd14610827578163248a9ca3146107fc5781632f2ff15d146107d2578163313ce567146107b657816336568abe1461077057816340c10f191461066257816342966c681461062757816370a08231146105f05781638f87119e1461050957816391d14854146104c257816395d89b41146103a3578163a217fddf14610388578163a5e90eee146102e6578163a9059cbb146102b5578163cf456ae714610202578163d5391393146101d9578163d547741f1461019557508063dd62ed3e1461014d5763ec87621c1461012257600080fd5b346101495781600319360112610149576020905160008051602061130a8339815191528152f35b5080fd5b50346101495780600319360112610149578060209261016a610b47565b610172610b62565b6001600160a01b0391821683526001865283832091168252845220549051908152f35b919050346101d557806003193601126101d5576101d191356101cc60016101ba610b62565b93838752600560205286200154610c34565b610f22565b5080f35b8280fd5b5050346101495781600319360112610149576020905160008051602061132a8339815191528152f35b919050346101d55761021336610bad565b919061021d610bdc565b6001600160a01b0381169384156102815750916020917f583b0aa0e528532caf4b907c11d7a8158a122fe2a6fb80cd9b09776ebea8d92d93826000146102725761026690610ce9565b505b519015158152a280f35b61027b90610e88565b50610268565b606490602084519162461bcd60e51b8352820152600e60248201526d24b73b30b634b21036b4b73a32b960911b6044820152fd5b5050346101495780600319360112610149576020906102df6102d5610b47565b6024359033610f99565b5160018152f35b919050346101d5576102f736610bad565b9190610301610bdc565b6001600160a01b0381169384156103535750916020917fff83ce179bad4fbdb0e98074011487cde624295a52d8189d92d5d8b06c914eda938260001461034a5761026690610c5a565b61027b90610e00565b606490602084519162461bcd60e51b8352820152600f60248201526e24b73b30b634b21036b0b730b3b2b960891b6044820152fd5b50503461014957816003193601126101495751908152602090f35b838334610149578160031936011261014957805190828454600181811c908083169283156104b8575b60209384841081146104a5578388529081156104895750600114610434575b505050829003601f01601f191682019267ffffffffffffffff841183851017610421575082918261041d925282610afe565b0390f35b634e487b7160e01b815260418552602490fd5b8787529192508591837f8a35acfbc15ff81a39ae7d344fd709f28e8600b4aa8c65c6b64bfe7fe36bd19b5b83851061047557505050508301018580806103eb565b80548886018301529301928490820161045f565b60ff1916878501525050151560051b84010190508580806103eb565b634e487b7160e01b895260228a52602489fd5b91607f16916103cc565b9050346101d557816003193601126101d5578160209360ff926104e3610b62565b90358252600586528282206001600160a01b039091168252855220549151911615158152f35b839150346101495761051a36610b78565b9260008051602061130a833981519152929192808652600560205286862033875260205260ff8787205416156105d357506001600160a01b03828116156105a157831615610571575061056e939450610f99565b80f35b606490602087519162461bcd60e51b8352820152600a602482015269496e76616c696420746f60b01b6044820152fd5b865162461bcd60e51b8152602081840152600c60248201526b496e76616c69642066726f6d60a01b6044820152606490fd5b6044925086519163e2517d3f60e01b835233908301526024820152fd5b5050346101495760203660031901126101495760209181906001600160a01b03610618610b47565b16815280845220549051908152f35b919050346101d55760203660031901126101d557331561064d575061056e903533610fef565b916024925191634b637e8f60e11b8352820152fd5b919050346101d557806003193601126101d55761067d610b47565b906024359160008051602061132a833981519152808652600560205282862033875260205260ff83872054161561075257506001600160a01b031692831561071057600254908382018092116106fd5750849260008051602061134a8339815191529260209260025585855284835280852082815401905551908152a380f35b634e487b7160e01b865260119052602485fd5b6020606492519162461bcd60e51b8352820152601b60248201527f43616e6e6f74206d696e7420746f207a65726f206164647265737300000000006044820152fd5b825163e2517d3f60e01b815233818701526024810191909152604490fd5b83833461014957806003193601126101495761078a610b62565b90336001600160a01b038316036107a757506101d1919235610f22565b5163334bd91960e11b81528390fd5b5050346101495781600319360112610149576020905160128152f35b919050346101d557806003193601126101d5576101d191356107f760016101ba610b62565b610d85565b9050346101d55760203660031901126101d55781602093600192358152600585522001549051908152f35b839150346101495761083836610b78565b6001600160a01b03831680865260016020908152878720338852905286862054919592946000198310610874575b6020886102df898989610f99565b8683106108dc5781156108c55733156108ae575082526001602090815286832033845281529186902090859003905582906102df87610866565b8751634a1406b160e11b8152908101849052602490fd5b875163e602df0560e01b8152908101849052602490fd5b8751637dc7a0d960e11b8152339181019182526020820193909352604081018790528291506060010390fd5b5050346101495781600319360112610149576020906002549051908152f35b9050346101d557816003193601126101d557610941610b47565b6024359033156109ba576001600160a01b03169182156109a357508083602095338152600187528181208582528752205582519081527f8c5be1e5ebec7d5bd14f71427d1e84f3dd0314c0f7b2291e5b200ac8c7c3b925843392a35160018152f35b8351634a1406b160e11b8152908101859052602490fd5b835163e602df0560e01b8152808401869052602490fd5b83833461014957816003193601126101495780519082600354600181811c90808316928315610aa1575b60209384841081146104a5578388529081156104895750600114610a4b57505050829003601f01601f191682019267ffffffffffffffff841183851017610421575082918261041d925282610afe565b600387529192508591837fc2575a0e9e593c00f959f8c92f12db2869c3395a3b0502d05e2516446f71f85b5b838510610a8d57505050508301018580806103eb565b805488860183015293019284908201610a77565b91607f16916109fb565b8491346101d55760203660031901126101d5573563ffffffff60e01b81168091036101d55760209250637965db0b60e01b8114908115610aed575b5015158152f35b6301ffc9a760e01b14905083610ae6565b6020808252825181830181905290939260005b828110610b3357505060409293506000838284010152601f8019910116010190565b818101860151848201604001528501610b11565b600435906001600160a01b0382168203610b5d57565b600080fd5b602435906001600160a01b0382168203610b5d57565b6060906003190112610b5d576001600160a01b03906004358281168103610b5d57916024359081168103610b5d579060443590565b6040906003190112610b5d576004356001600160a01b0381168103610b5d57906024358015158103610b5d5790565b3360009081527f05b8ccbb9d4d8fb16ea74ce3c29a41f1b461fbdaff4714a0d9a8eb05499746bc602052604081205460ff1615610c165750565b6044906040519063e2517d3f60e01b82523360048301526024820152fd5b80600052600560205260406000203360005260205260ff6040600020541615610c165750565b6001600160a01b031660008181526000805160206112ea833981519152602052604081205490919060008051602061130a8339815191529060ff16610ce45780835260056020526040832082845260205260408320600160ff198254161790557f2f8788117e7eff1d82e926ec794901d17c78024a50270940304540a733656f0d339380a4600190565b505090565b6001600160a01b031660008181527f15a28d26fa1bf736cf7edc9922607171ccb09c3c73b808e7772a3013e068a522602052604081205490919060008051602061132a8339815191529060ff16610ce45780835260056020526040832082845260205260408320600160ff198254161790557f2f8788117e7eff1d82e926ec794901d17c78024a50270940304540a733656f0d339380a4600190565b906000918083526005602052604083209160018060a01b03169182845260205260ff60408420541615600014610ce45780835260056020526040832082845260205260408320600160ff198254161790557f2f8788117e7eff1d82e926ec794901d17c78024a50270940304540a733656f0d339380a4600190565b6001600160a01b031660008181526000805160206112ea833981519152602052604081205490919060008051602061130a8339815191529060ff1615610ce4578083526005602052604083208284526020526040832060ff1981541690557ff6391f5c32d9c69d2a47ea670b442974b53935d1edc7fd64eb21e047a839171b339380a4600190565b6001600160a01b031660008181527f15a28d26fa1bf736cf7edc9922607171ccb09c3c73b808e7772a3013e068a522602052604081205490919060008051602061132a8339815191529060ff1615610ce4578083526005602052604083208284526020526040832060ff1981541690557ff6391f5c32d9c69d2a47ea670b442974b53935d1edc7fd64eb21e047a839171b339380a4600190565b906000918083526005602052604083209160018060a01b03169182845260205260ff604084205416600014610ce4578083526005602052604083208284526020526040832060ff1981541690557ff6391f5c32d9c69d2a47ea670b442974b53935d1edc7fd64eb21e047a839171b339380a4600190565b91906001600160a01b0380841615610fd657811615610fbd57610fbb926110b4565b565b60405163ec442f0560e01b815260006004820152602490fd5b604051634b637e8f60e11b815260006004820152602490fd5b906001600160a01b0382161580156110ac575b6110a3573360009081526000805160206112ea833981519152602052604081205460ff16908115611082575b501561103d57610fbb9161113b565b60405162461bcd60e51b815260206004820152601960248201527f52555344207472616e73666572732072657374726963746564000000000000006044820152606490fd5b60ff915080806040925260056020528181203382526020522054163861102e565b610fbb9161113b565b506001611002565b91906001600160a01b0380841615908115611130575b50611127573360009081526000805160206112ea833981519152602052604081205460ff16908115611106575b501561103d57610fbb9261120d565b60ff91508080604092526005602052818120338252602052205416386110f7565b610fbb9261120d565b9050811615386110ca565b6001600160a01b038116908161119a57506002549180830180931161118457602060008051602061134a833981519152916000946002555b8060025403600255604051908152a3565b634e487b7160e01b600052601160045260246000fd5b92916000828152806020526040812054948286106111dc57508181604060008051602061134a8339815191529460009798876020965283865203912055611173565b60405163391434e360e21b81526001600160a01b039190911660048201526024810186905260448101839052606490fd5b6001600160a01b0380821692909183611278575090600254908482018092116111845760008051602061134a833981519152926020926002555b1693846112605780600254036002555b604051908152a3565b84600052600082526040600020818154019055611257565b600090848252816020526040822054908682106112b7575091816040876020958860008051602061134a83398151915298965283875203912055611247565b60405163391434e360e21b81526001600160a01b03919091166004820152602481019190915260448101869052606490fdfee3a5955c11d878176a306e8c308ba1ceef9cfa46a3768e3b22365ec256a01e1f241ecf16d79d0f8dbfb92cbc07fe17840425976cf0667f022fe9877caa831b089f2df0fed2c77648de5860a4cc508cd0818c85b8b8a1ab4ceeef8d981c8956a6ddf252ad1be2c89b69c2b068fc378daa952ba7f163c4a11628f55a4df523b3efa264697066735822122039718abd6ed20367b9903925cfab1c27cdc96fbb3451319f994a63e8f5b0328a64736f6c634300081400332f8788117e7eff1d82e926ec794901d17c78024a50270940304540a733656f0d",
  "linkReferences": {},
  "deployedLinkReferences": {}
}